:020000040000FA
:020000000328D3
:040002000034003492
:0A000600831603138701E030860023
:10001000031789015030010507388100831203134B
:1000200083132030840077308000840A41308000C0
:10003000840A3B308000840A6B308000840A4D3093
:100040008000840A6E308000840A7E308000840A3A
:1000500043308000840A7F308000840A6F30800043
:10006000840A5F308000840A7C308000840A363045
:100070008000840A79308000840A3E308000840A3F
:100080001E3080003C3081000A30B100200887001B
:10009000B401B0018601B6010608B5008D20B51E79
:1000A0007A20351F86200B19692030083402031985
:1000B0005E20031C5C204C28F0308605361806169E
:1000C000361C0612B0010A30B1003C30FF30B606D3
:1000D0000800B103031970203C3081000B110800A7
:1000E0000A30B100B00A301AB001F030060530070E
:1000F00086000800861AB40A341AB4018020080069
:100100002030340784000008870008000F30061BE9
:10011000B403B41BB400802008000230B200932066
:10012000B20B8F280800FF30B300B30B95280800EE
:02400E00D420BC
:02401000FF3F70
:00000001FF
