:020000040000FA
:02000000A7282F
:040002000034003492
:08000800C100030EC2000B1938
:100010000E280C1848288C186E2885280630810078
:100020000B11A00B1628FA30A000B00A2B1F2128B4
:10003000A60B2128FA30A600A70B21282B133C3051
:10004000A700AB1E2B288914A403031D2B287D3089
:10005000A4008910AB12A30B36287D30A3002B0817
:10006000EF39C0002B0910394007AB00A10B8528E0
:1000700009082B1F0B392B1B0939C00009092B1F3D
:1000800004392B1B0639400789003F30A100852821
:100090000B308F00DC308E000C10A203031D85286E
:1000A0000230A2001010AB102B11AB162D185C28DB
:1000B000AD1862282D1969283308B1003408B20040
:1000C000B00185283908B5003B08B7003A08B600EA
:1000D000852812153E08BC003F08BD008C10A50BFA
:1000E00085283230A500BC0B7E2800303D02031D60
:1000F0007E282B1712119101BC018528FF303C028C
:10010000031D85285930BC00BD03420E8300C10E7B
:10011000410E09008207773441343B346B344D344F
:100120006E347E3443347F346F34AB183A08AB1CE2
:100130003608820700003234293432343134323404
:0E0140003134323432343134323431343234EA
:02014E00031795
:100150008316880189010313FF3086008501890118
:10016000870188010330810003308C007D309200CC
:10017000E0308B008312603090004A30920088019A
:1001800087018901063081000B308F00DC308E0042
:100190003F30A100FA30A000B001B101B201AB01C3
:1001A000BD01BC01FF30AE00AF000230A200013043
:1001B000AA00AD00B700B500B6007D30A400323013
:1001C000A50085003C30A700FA30A6003C30300284
:1001D0000319C7212B18AF211219A821003EAA1D0F
:1001E000F428AA01FF30013EAA0D2E08AF003123EA
:1001F0000608AE00AF1AFE28AE1AAB14AB180C29D5
:100200002F190C292E1D0C292D1D09290130AD0097
:100210000C290030003EAD0D2D0885002D18152944
:10022000AD1825292D193529E628AB1C18291E29BA
:100230003108C3003208C4004F21E628DD2133080D
:10024000C3003408C4006921E628AB1C28292E29E4
:100250003708C4003508C3004F21E6283222390888
:10026000C3003B08C4006921E628AB1C3829482993
:10027000AF184229AE1C42292B138910FA30A60070
:100280003C30A7003C08C3003D08C4004F21E628CD
:1002900095223E08C3003F08C4006921E628AA1839
:1002A00059292A195D29AA19612943080F398A2079
:1002B0006429430E0F398A20642944080F398A20A3
:1002C0006429440E0F398A20880187002A08880093
:1002D00008000030AA1878292A198029AA19882923
:1002E0002B1E74292B1D8F2943080F398A208F2933
:1002F0002B1E7C292B1D8F29430E0F398A208F2915
:100300002B1E84292B198F2944080F398A208F2905
:100310002B1E8C292B198F29440E0F398A20880116
:1003200087002A0888000800AC1000080F390A3C32
:10033000031D0800AC140630800708002C100008CC
:100340000F390F3C031D08002C14063080020800F2
:100350003C3084009E213D3084009E2108002B10FB
:10036000B70A37308400942195203702031D080016
:100370000130B700B60AB50A3530840094210D303B
:100380003602031D08000130B600B5000800B10AAE
:10039000B00131308400942160303102031D080027
:1003A000B101B20A24303202031DD929B2012B1443
:1003B00008003230840094210800AB19EA29AB15FB
:1003C0003208B40010143108B3002E08AF003123F6
:1003D0000608AE000915132319231F232C1EF52927
:1003E0002B1DF4292B11F5292B152B190E2A2C1D49
:1003F000032AB303FF303302031D002A5930B30030
:10040000333084009E21AC1D242AB30A333084008B
:100410009421603033020319B301242A2C1D1A2AB7
:10042000B403FF303402031D172A2330B4003430E4
:1004300084009E21AC1D242AB40A34308400942107
:10044000243034020319B4012523AC1E0800AB117B
:100450002B11AB100B308F00DC308E000230A2006D
:1004600010100800AB19412AAB153708BB00101457
:100470003508B9003608BA002E08AF003123060847
:10048000AE000915132319231F232C1E4C2A2B1DE4
:100490004B2A2B114C2A2B159520B80038083B020B
:1004A000031C542A3803BB002B1D6D2A572A2C1D10
:1004B000602ABB0B5D2A3803BB003B3084009E21C1
:1004C000AC1D872ABB0A3B308400942138083B02CC
:1004D000031D872A0130BB00872A2C1D792AB90306
:1004E000BA0B762A0C30BA001230B90039308400C9
:1004F0009E21AC1D872AB90ABA0A0D303A02031DA3
:10050000842A0130BA00B9003930840094212523AF
:10051000AC1E0800AB112B11AB100B308F00DC3080
:100520008E000230A20010100800AB19AD2AAB15E6
:100530003C08003C031DA32A3D08003C031DA32AE0
:100540000130BE00A52A3C08BE0010143D08BF00C3
:100550002E08AF0031230608AE0009151323192316
:100560001F232C1EB82A2B1DB72A2B11B82A2B1596
:100570002B19E52A2C1DD02ABE033F08003C031D81
:10058000C72A3E08003C031DC72A5930BE00FF3071
:100590003E02031DCD2A5930BE003E3084009E210C
:1005A000AC1D052BBE0A3F08003C031DDD2A3E089A
:1005B0005A3C031DDD2A0130BE003E3084009421E8
:1005C00060303E020319BE01052B00303E02031DC0
:1005D000EF2A00303F02031DEF2A0130BE002C1D20
:1005E000FB2ABF03FF303F02031DF82A9930BF00EA
:1005F0003F3084009E21AC1D052BBF0A3F30840094
:100600009421A0303F020319BF012523AC1E08002E
:10061000AB112B11AB100B308F00DC308E00023091
:10062000A200101008002C112F1808002E182C15ED
:100630000800AC11AF180800AE18AC1508002C1259
:100640002F1908002E192C160800AC12AF1A08003A
:10065000AE1AAC1608000230A9003123A90B2D2BCD
:0C0660000800A630A800A80B332B0800EF
:02400E00D420BC
:02401000FF3F70
:00000001FF
