:020000040000FA
:02000000A8282E
:040002000034003492
:08000800BF00030EC0000B193C
:100010000E280C1848288C186E2886280630810077
:100020000B112A1F1C28A60B1C28FA30A600A70BB0
:100030001C282A133C30A700AA1E26288914A403D2
:10004000031D26287D30A4008910AA12A30B312895
:100050007D30A3002A08EF39BE002A0910393E0777
:10006000AA00A10B422809082A1F0B392A1B0939AB
:10007000BE0009092A1F04392A1B06393E078900D8
:100080003F30A100A00B8628FA30A000AE0A8628D7
:100090000B308F00DC308E000C10A203031D86286D
:1000A0000230A2001010AA102A11AA162B185C28E0
:1000B000AB1862282B1969283108AF003208B0004C
:1000C000AE0186283708B3003908B5003808B400F7
:1000D000862812153C08BA003D08BB008C10A50309
:1000E000031D86283230A500BA0B7F2800303B0262
:1000F000031D7F282A1712119101BA018628FF30AB
:100100003A02031D86285930BA00BB03400E830013
:10011000BF0E3F0E09008207773441343B346B3405
:100120004D346E347E3443347F346F34AA1838082B
:10013000AA1C3408820700003234293432343134A6
:100140003234313432343234313432343134323482
:1001500003178316880189010313FF308600850188
:100160008901870188010330810003308C007D30D4
:100170009200E0308B008312603090004A30920091
:10018000880187018901063081000B308F00DC3047
:100190008E003F30A100FA30A000AE01AF01B001E7
:1001A000AA01BB01BA01FF30AC00AD000230A200D1
:1001B0000130A900AB00B500B300B4007D30A4004D
:1001C0003230A50085003C30A700FA30A6003C3054
:1001D0002E020319C2212A18A42112199521003ECA
:1001E000A91DF528A901FF30013EA90D2C08AD007D
:1001F00063230608AC00AD1AFF28AC1AAA14AA188B
:100200000D292D190D292C1D0D292B1D0A29013011
:10021000AB000D290030003EAB0D2B0885002B18DC
:100220001629AB1826292B193629E728AA1C1929C3
:100230001F292F08C1003008C2005021E728DF2104
:100240003108C1003208C2006A21E728AA1C292906
:100250002F293508C2003308C1005021E7284C225D
:100260003708C1003908C2006A21E728AA1C3929C9
:100270004929AD184329AC1843292A138910FA30AB
:10028000A6003C30A7003A08C1003B08C20050213C
:10029000E728C9223C08C1003D08C2006A21E728BE
:1002A000A9185A2929195E29A919622941080F3963
:1002B0008B206529410E0F398B20652942080F39A3
:1002C0008B206529420E0F398B2088018700290871
:1002D000880008000030A918792929198129A9194D
:1002E00089292A1E75292A1D902941080F398B203A
:1002F00090292A1E7D292A1D9029410E0F398B2015
:1003000090292A1E85292A19902942080F398B2005
:1003100090292A1E8D292A199029420E0F398B20E7
:10032000880187002908880008000F303A050F3C33
:10033000031D9C290630BA020F303B050F3C031DFC
:1003400008000630BB0208002A10B50A0F30350538
:100350000A3C031DAD290630B50796203502031D62
:1003600008000130B500B40AB30A0A30330206307F
:100370000319B3070D303402031D08000130B40027
:10038000B3000800AF0AAE012F080F390A3C031D65
:1003900008000630AF0760302F02031D0800AF01D0
:1003A000B00A24303002031DD729B0012A143008C6
:1003B0000F390A3C031D08000630B0070800AA19CF
:1003C000EC29AA153008B20010142F08B1002C082F
:1003D000AD0063230608AC0009152D19F6292C1D64
:1003E000F6292A1DF5292A11F6292A152A191B2A68
:1003F0002D180A2A2C1C0A2AB103FF303102031DD2
:10040000032A5930B1000F3031050F3C031D0A2A71
:100410000630B102AD183D2AAC1C3D2AB10A0F309E
:1004200031050A3C031D162A0630B107603031023F
:100430000319B1013D2A2D182D2A2C1C2D2AB20397
:10044000FF303202031D262A2330B2000F3032055E
:100450000F3C031D2D2A0630B202AD183D2AAC1CFC
:100460003D2AB20A0F3032050A3C031D392A0630F4
:10047000B207243032020319B201AD1A0800AC1ED3
:100480000800AA112A11AA100B308F00DC308E0050
:100490000230A20010100800AA195B2AAA1535081C
:1004A000B90010143308B7003408B8002C08AD00A8
:1004B00063230608AC0009152D19652A2C1D652A31
:1004C0002A1D642A2A11652A2A159620B6003608A4
:1004D0003902031C6D2A3603B9002A1D932A702A9B
:1004E0002D18802A2C1C802AB903031D792A360373
:1004F000B9000F3039050F3C031D802A0630B902C0
:10050000AD18BA2AAC1CBA2AB90A39080F390A3C04
:10051000031D8C2A0630B90736083902031DBA2A92
:100520000130B900BA2A2D18A62A2C1CA62AB70316
:10053000B803031D9F2A0C30B8001230B7000F30EB
:1005400037050F3C031DA62A0630B702AD18BA2A9C
:10055000AC1CBA2AB70AB80A0D303802031DB32AF8
:100560000130B800B70037080F390A3C031DBA2A1A
:100570000630B707AD1A0800AC1E0800AA112A11F0
:10058000AA100B308F00DC308E000230A200101059
:100590000800AA19E52AAA153A08003C031DDB2A1F
:1005A0003B08003C031DDB2A3A08003C031DDB2A04
:1005B0000130BC00DD2A3A08BC0010143B08BD0025
:1005C0002C08AD0063230608AC0009152D19EF2A8D
:1005D0002C1DEF2A2A1DEE2A2A11EF2A2A152A1984
:1005E000282B2D180D2B2C1C0D2BBC033D08003C7B
:1005F000031D002B3C08003C031D002B5930BC00A0
:10060000FF303C02031D062B5930BC000F303C0567
:100610000F3C031D0D2B0630BC02AD18542BAC1C37
:10062000542BBC0A3D08003C031D1C2B3C085A3CC3
:10063000031D1C2B0130BC000F303C050A3C031D80
:10064000232B0630BC0760303C020319BC01542B3D
:1006500000303C02031D322B00303D02031D322BC3
:100660000130BC002D18442B2C1C442BBD03FF3043
:100670003D02031D3D2B9930BD000F303D050F3C61
:10068000031D442B0630BD02AD18542BAC1C542B5B
:10069000BD0A0F303D050A3C031D502B0630BD0737
:1006A000A0303D020319BD01AD1A0800AC1E0800C0
:1006B000AA112A11AA100B308F00DC308E000230F4
:1006C000A20010100800FF30A800A80B652B08003E
:02400E00D420BC
:02401000FF3F70
:00000001FF
