:020000040000FA
:020000000328D3
:040002000034003492
:0A0006008316031788018901811396
:10001000031385018701FF30860083128701850164
:10002000A001A1010608A5003E20251C2820A51C32
:100030003220251D2D20A51D3820210E20078500EA
:10004000251E2320122800302007210787000800E2
:100050000618A00A201AA00108000619A10A211AF0
:10006000A10108000F308618A003A01BA000080003
:100070000F308619A103A11BA10008006430A40061
:100080004420A40B40280800FF30A300A30B4628FF
:02009000080066
:02400E00D420BC
:02401000FF3F70
:00000001FF
