:020000040000FA
:020000001028C6
:040002000034003492
:08000800A200030EA3008C1EF0
:100010000B281A08A000230E8300A20E220E09004E
:100020000317831688010313850188018B170B17AB
:100030008C16181218151930990083129817181376
:100040001816A0018030A1008501A1092B2088008D
:100050002108850024282008211B200E0F39820743
:1000600077341434B334B634D434E634E734343427
:10007000F734F634F534C73463349734E334E13479
:02400E00D420BC
:02401000FF3F70
:00000001FF
