:020000040000FA
:020000001028C6
:040002000034003492
:08000800A500030EA4000C1377
:100010001E08A0009F14240E8300A50E250E0900C3
:10002000831603178901FF308800031386018701B7
:100030008801FF3085009F139F121F12C0308B0074
:100040000C178312003041309F0087010130880077
:10005000A3008601A001A1014C209F142008860066
:10006000880137208700A309230888002E2820084C
:100070002318200E0F39820777341434B334B63482
:10008000D434E634E7343434F734F634F534C73452
:0C00900063349734E334E13400000800CE
:02400E00D420BC
:02401000FF3F70
:00000001FF
