:020000040000FA
:02000000562880
:040002000034003492
:08000800A900030EAA000B1968
:100010000C280C1838285128063081000B11AD1E11
:1000200019288914B803031D19287D30B8008910D8
:10003000AD12B703031D25287D30B7002D08EF3919
:10004000B5002D0910393507AD00A103031D312876
:1000500009080B39B50009090439350789003F3013
:10006000A100A003031D5128FA30A000A20A5128C4
:100070000B308F00DC308E000C10B603031D5128AE
:100080000230B6001010AD102D11AD162E184C28F0
:10009000AE1851282E1951283008A3003108A400A9
:0C00A000A2012A0E8300A90E290E0900FF
:0400AC00031783169D
:1000B000880189010313FF308600850189018701CA
:1000C00088010330810003308C00E0308B00831204
:1000D000880187018901063081000B308F00DC30F8
:1000E0008E00603090004A3092003F30A100FA301C
:1000F000A000A201A301A401AD01FF30AB00AC0040
:100100000130A800AE00A500A600A7007D30B80011
:1001100085003C30220203195E212D184021003E4B
:10012000A81D9528A801FF30013EA80D2B08AC00A2
:1001300015220608AB00AC1A9F28AB1AAD14AD18F7
:10014000AD282C19AD282B1DAD282E1DAA28013055
:10015000AE00AD280030003EAE0D2E0885002E18F2
:10016000B428AE18C2288928AD1CB728BC28FE20A8
:1001700087002808880089287B2117218700280804
:1001800088008928E52087002808880089288801B8
:100190008207773441343B346B344D346E347E34D3
:1001A00043347F346F34AD1CB308AD182708820781
:1001B0000000323429343234313432343134323480
:1001C000323431343234313432342818EE28A8181D
:1001D000F2282819F628A819FA28080026080F3945
:1001E000C7200800260E0F39C720080025080F3940
:1001F000C7200800250E0F39C72008002818072936
:10020000A8180B2928190F29A81913290800230851
:100210000F39C7200800230E0F39C7200800240813
:100220000F39C7200800240E0F39C72008002818EE
:100230002029A818282928193029A81938290800A0
:100240002D1E24292D1D003430080F39C720080029
:100250002D1E2C292D1D0034300E0F39C72008000B
:100260002D1E34292D19003431080F39C7200800FC
:100270002D1E3C292D190034310E0F39C7200800DE
:100280002D10A50A0F3025050A3C031D492906300B
:10029000A507D3202502031D08000130A500A70AE9
:1002A000A60A0A30260206300319A6070D302702D7
:1002B000031D08000130A700A6000800A30AA20140
:1002C00023080F390A3C031D08000630A3076030DD
:1002D0002302031D0800A301A40A24302402031DE5
:1002E0007329A4012D1424080F390A3C031D0800AA
:1002F0000630A4070800AD198829AD152408B100FF
:1003000010142308B0002B08AC0015220608AB001F
:1003100009152C1992292B1D92292D1D91292D117A
:1003200092292D152D19B7292C18A6292B1CA62981
:10033000B003FF303002031D9F295930B0000F3049
:1003400030050F3C031DA6290630B002AC18D92990
:10035000AB1CD929B00A0F3030050A3C031DB22965
:100360000630B007593030020319B001D9292C18D2
:10037000C9292B1CC929B103FF303102031DC22931
:100380002330B1000F3031050F3C031DC929063061
:10039000B102AC18D929AB1CD929B10A0F303105EB
:1003A0000A3C031DD5290630B10724303102031958
:1003B000B101AC1A0800AB1E0800AD112D11AD1033
:1003C0000B308F00DC308E000230B60010100800B9
:1003D000AD19F729AD152508B40010142608B20090
:1003E0002708B3002B08AC0015220608AB0009153E
:1003F0002C19012A2B1D012A2D1D002A2D11012A3D
:100400002D15D320B9002D1D062A062AAC1A080086
:10041000AB1E0800AD112D11AD100B308F00DC307C
:100420008E000230B600101008003230AF00AF0B63
:04043000172A08007F
:02400E00D420BC
:02401000FF3F70
:00000001FF
