:020000040000FA
:02000000A9282D
:040002000034003492
:08000800A900030EAA000B1968
:100010000E280C1848288C186E2886280630810077
:100020000B112D1F1C28BF0B1C28FA30BF00C00B62
:100030001C282D133C30C000AD1E26288914B8039F
:10004000031D26287D30B8008910AD12B70B31286A
:100050007D30B7002D08EF39B5002D09103935076F
:10006000AD00A10B422809082D1F0B392D1B0939A2
:10007000B50009092D1F04392D1B063935078900E4
:100080003F30A100A00B8628FA30A000A20A8628E3
:100090000B308F00DC308E000C10B603031D862859
:1000A0000230B6001010AD102D11AD162E185C28C0
:1000B000AE1862282E1969283008A3003108A40060
:1000C000A20186283208A6003408A5003308A7003C
:1000D000862812153C08BA003D08BB008C10BE03F0
:1000E000031D86283230BE00BA0B7F2800303B0249
:1000F000031D7F282D1712119101BA018628FF30A8
:100100003A02031D86285930BA00BB032A0E830029
:10011000A90E290E090088018207773441343B3447
:100120006B344D346E347E3443347F346F34AD18C9
:100130003308AD1C270882070000323429343234DA
:100140003134323431343234323431343234313483
:02015000323447
:0E01520003178316880189010313FF3086000E
:1001600085018901870188010330810003308C00FB
:100170007D309200E0308B008312603090004A3076
:100180009200880187018901063081000B308F00C1
:10019000DC308E003F30A100FA30A000A201A301A4
:1001A000A401AD01BB01BA01FF30AB00AC000230CD
:1001B000B6000130A800AE00A500A600A7007D3063
:1001C000B8003230BE0085003C30C000FA30BF00BD
:1001D0003C30220203193E222D182022121911222E
:1001E000003EA81DF628A801FF30013EA80D2B08EF
:1001F000AC00DF230608AB00AC1A0029AB1AAD1423
:10020000AD180E292C190E292B1D0E292E1D0B2978
:100210000130AE000E290030003EAE0D2E088500E4
:100220002E181729AE1825292E193329E828AD1CB8
:100230001A291F297D21870028088800E8285B22C9
:100240009621870028088800E828AD1C28292D2938
:100250006421870028088800E828C822BF21870079
:1002600028088800E828AD1C36294529AC18402903
:10027000AB1840292D138910FA30BF003C30C00064
:100280004B21870028088800E8284523E8218700BB
:1002900028088800E82828185429A8185829281957
:1002A0005C29A819602908003A080F398B2008003A
:1002B0003A0E0F398B2008003B080F398B200800BD
:1002C0003B0E0F398B20080028186D29A8187129BA
:1002D00028197529A8197929080026080F398B20B3
:1002E0000800260E0F398B20080025080F398B20B7
:1002F0000800250E0F398B20080028188629A81819
:100300008A2928198E29A8199229080023080F394B
:100310008B200800230E0F398B20080024080F398A
:100320008B200800240E0F398B20080028189F29E5
:10033000A818A7292819AF29A819B72908002D1E20
:10034000A3292D1D003430080F398B2008002D1EE5
:10035000AB292D1D0034300E0F398B2008002D1EC7
:10036000B3292D19003431080F398B2008002D1EB8
:10037000BB292D190034310E0F398B2008002818A5
:10038000C829A818D0292819D829A819E0290800AF
:100390002D1ECC292D19003432080F398B2008006E
:1003A0002D1ED4292D190034320E0F398B20080050
:1003B0002D1EDC292D1D003434080F398B20080038
:1003C0002D1EE4292D1D0034340E0F398B2008001A
:1003D0002818F129A818F9292819012AA819092A81
:1003E00008002D1EF5292D1D00343C080F398B20E7
:1003F00008002D1EFD292D1D00343C0E0F398B20C9
:1004000008002D1E052A2D1900343D080F398B20B8
:1004100008002D1E0D2A2D1900343D0E0F398B209A
:1004200008000F303A050F3C031D182A0630BA02A7
:100430000F303B050F3C031D08000630BB020800CF
:100440002D10A50A0F3025050A3C031D292A063068
:10045000A50797202502031D08000130A500A70A63
:10046000A60A0A30260206300319A6070D30270215
:10047000031D08000130A700A6000800A30AA2017E
:1004800023080F390A3C031D08000630A30760301B
:100490002302031D0800A301A40A24302402031D23
:1004A000532AA4012D1424080F390A3C031D080007
:1004B0000630A4070800AD19682AAD152408B1005C
:1004C00010142308B0002B08AC00DF230608AB0093
:1004D00009152C19722A2B1D722A2D1D712A2D1116
:1004E000722A2D152D19972A2C18862A2B1C862A3C
:1004F000B003FF303002031D7F2A5930B0000F30A7
:1005000030050F3C031D862A0630B002AC18B92A0C
:10051000AB1CB92AB00A0F3030050A3C031D922AE1
:100520000630B007603030020319B001B92A2C1828
:10053000A92A2B1CA92AB103FF303102031DA22ACC
:100540002330B1000F3031050F3C031DA92A0630BE
:10055000B102AC18B92AAB1CB92AB10A0F30310567
:100560000A3C031DB52A0630B107243031020319B5
:10057000B101AC1A0800AB1E0800AD112D11AD1071
:100580000B308F00DC308E000230B60010100800F7
:10059000AD19D72AAD152508B40010142608B200ED
:1005A0002708B3002B08AC00DF230608AB000915B1
:1005B0002C19E12A2B1DE12A2D1DE02A2D11E12AFB
:1005C0002D159720B90039083402031CE92A390394
:1005D000B4002D1DEC2A0F2B2C18FC2A2B1CFC2AF6
:1005E000B403031DF52A3903B4000F3034050F3C62
:1005F000031DFC2A0630B402AC18362BAB1C362B7C
:10060000B40A34080F390A3C031D082B0630B4071E
:1006100039083402031D362B0130B400362B2C1858
:10062000222B2B1C222BB203B303031D1B2B0C30DC
:10063000B3001230B2000F3032050F3C031D222BE5
:100640000630B202AC18362BAB1C362BB20AB30AFA
:100650000D303302031D2F2B0130B300B2003208DE
:100660000F390A3C031D362B0630B207AC1A0800BE
:10067000AB1E0800AD112D11AD100B308F00DC301A
:100680008E000230B60010100800AD19612BAD15B8
:100690003A08003C031D572B3B08003C031D572B19
:1006A0003A08003C031D572B0130BC00592B3A0877
:1006B000BC0010143B08BD002B08AC00DF2306086B
:1006C000AB0009152C196B2B2B1D6B2B2D1D6A2BC9
:1006D0002D116B2B2D152D19A42B2C18892B2B1CB0
:1006E000892BBC033D08003C031D7C2B3C08003CCF
:1006F000031D7C2B5930BC00FF303C02031D822BB4
:100700005930BC000F303C050F3C031D892B0630CF
:10071000BC02AC18D02BAB1CD02BBC0A3D08003C53
:10072000031D982B3C085A3C031D982B0130BC003C
:100730000F303C050A3C031D9F2B0630BC07603080
:100740003C020319BC01D02B00303C02031DAE2B30
:1007500000303D02031DAE2B0130BC002C18C02B15
:100760002B1CC02BBD03FF303D02031DB92B99305C
:10077000BD000F303D050F3C031DC02B0630BD02F0
:10078000AC18D02BAB1CD02BBD0A0F303D050A3C5A
:10079000031DCC2B0630BD07A0303D020319BD015F
:1007A000AC1A0800AB1E0800AD112D11AD100B30B6
:1007B0008F00DC308E000230B60010100800FF30D1
:0807C000AF00AF0BE12B0800B4
:02400E00D420BC
:02401000FF3F70
:00000001FF
