:020000040000FA
:02000000AB282B
:040002000034003492
:08000800A900030EAA000B1968
:100010000E280C184B288C1871288828063081006F
:100020000B112D1F1C28BF0B1C28FA30BF00C00B62
:100030001C282D133C30C000AD1E26288914B8039F
:10004000031D26287D30B8008910AD12B703031DAB
:1000500032287D30B7002D08EF39B5002D09103951
:100060003507AD00A103031D442809082D1F0B39D6
:100070002D1B0939B50009092D1F04392D1B06391F
:10008000350789003F30A100A003031D8828FA30FE
:10009000A000A20A88280B308F00DC308E000C10E4
:1000A000B603031D88280230B6001010AD102D11C4
:1000B000AD162E185F28AE1865282E196C2830084A
:1000C000A3003108A400A20188283208A600340841
:1000D000A5003308A700882812153C08BA003D087F
:1000E000BB008C10BE03031D88283230BE00BA034B
:1000F000FF303A02031D88285930BA0000303B0215
:10010000031D87282D1712119101BA018828BB03FE
:100110002A0E8300A90E290E090088018207773470
:1001200041343B346B344D346E347E3443347F344D
:100130006F34AD183308AD1C270882070000323435
:10014000293432343134323431343234323431348B
:0601500032343134323478
:0A01560003178316880189010313C3
:10016000FF30860085018901870188010330810005
:1001700003308C007D309200E0308B0083126030C1
:1001800090004A3092008801870189010630810081
:100190000B308F00DC308E003F30A100FA30A00021
:1001A000A201A301A401AD01BB01BA01FF30AB0064
:1001B000AC000230B6000130A800AE00A500A600D9
:1001C000A7007D30B8003230BE0085003C30C00052
:1001D000FA30BF003C302202031940222D1822229F
:1001E00012191322003EA81DF828A801FF30013E75
:1001F000A80D2B08AC00BA230608AB00AC1A0229E4
:10020000AB1AAD14AD1810292C1910292B1D10296B
:100210002E1D0D290130AE0010290030003EAE0D1C
:100220002E0885002E181929AE1827292E193529D0
:10023000EA28AD1C1C2921297F2187002808880075
:10024000EA285D229821870028088800EA28AD1C4A
:100250002A292F296621870028088800EA28CA222F
:10026000C121870028088800EA28AD1C38294729C1
:10027000AC184229AB1842292D138910FA30BF005F
:100280003C30C0004D21870028088800EA28472319
:10029000EA21870028088800EA2828185629A81883
:1002A0005A2928195E29A819622908003A080F3925
:1002B0008D2008003A0E0F398D2008003B080F39B9
:1002C0008D2008003B0E0F398D20080028186F295B
:1002D000A818732928197729A8197B290800260846
:1002E0000F398D200800260E0F398D2008002508B3
:1002F0000F398D200800250E0F398D200800281891
:100300008829A8188C2928199029A8199429080047
:1003100023080F398D200800230E0F398D20080087
:1003200024080F398D200800240E0F398D20080075
:100330002818A129A818A9292819B129A819B92963
:1003400008002D1EA5292D1D003430080F398D20E1
:1003500008002D1EAD292D1D0034300E0F398D20C3
:1003600008002D1EB5292D19003431080F398D20B4
:1003700008002D1EBD292D190034310E0F398D2096
:1003800008002818CA29A818D2292819DA29A81972
:10039000E22908002D1ECE292D19003432080F390C
:1003A0008D2008002D1ED6292D190034320E0F394C
:1003B0008D2008002D1EDE292D1D003434080F3934
:1003C0008D2008002D1EE6292D1D0034340E0F3916
:1003D0008D2008002818F329A818FB292819032ABA
:1003E000A8190B2A08002D1EF7292D1D00343C08E2
:1003F0000F398D2008002D1EFF292D1D00343C0EC5
:100400000F398D2008002D1E072A2D1900343D08B4
:100410000F398D2008002D1E0F2A2D1900343D0E96
:100420000F398D2008000F303A050F3C031D1A2AA2
:100430000630BA020F303B050F3C031D08000630A2
:10044000BB0208002D10A50A0F3025050A3C031D2C
:100450002B2A0630A50799202502031D080001302C
:10046000A500A70AA60A0A30260206300319A60725
:100470000D302702031D08000130A700A600080068
:10048000A30AA20123080F390A3C031D0800063005
:10049000A30760302302031D0800A301A40A24302F
:1004A0002402031D552AA4012D1424080F390A3CE7
:1004B000031D08000630A4070800AD196A2AAD150F
:1004C0002408B10010142308B0002B08AC00BA2394
:1004D0000608AB0009152C19742A2B1D742A2D1D32
:1004E000732A2D11742A2D152D19992A2C18882A52
:1004F0002B1C882AB003FF303002031D812A59309B
:10050000B0000F3030050F3C031D882A0630B002C2
:10051000AC18BB2AAB1CBB2AB00A0F3030050A3C12
:10052000031D942A0630B007603030020319B00171
:10053000BB2A2C18AB2A2B1CAB2AB103FF3031028B
:10054000031DA42A2330B1000F3031050F3C031DD9
:10055000AB2A0630B102AC18BB2AAB1CBB2AB10ACD
:100560000F3031050A3C031DB72A0630B10724308D
:1005700031020319B101AC1A0800AB1E0800AD111D
:100580002D11AD100B308F00DC308E000230B60024
:1005900010100800AD19D92AAD152508B4001014A3
:1005A0002608B2002708B3002B08AC00BA230608BF
:1005B000AB0009152C19E32A2B1DE32A2D1DE22A75
:1005C0002D11E32A2D159920B90039083402031C96
:1005D000EB2A3903B4002D1DEE2A112B2C18FE2A0C
:1005E0002B1CFE2AB403031DF72A3903B4000F3075
:1005F00034050F3C031DFE2A0630B402AC18382B1C
:10060000AB1C382BB40A34080F390A3C031D0A2BE3
:100610000630B40739083402031D382B0130B4000A
:10062000382B2C18242B2B1C242BB203B303031DB3
:100630001D2B0C30B3001230B2000F3032050F3CCE
:10064000031D242B0630B202AC18382BAB1C382B00
:10065000B20AB30A0D303302031D312B0130B3004F
:10066000B20032080F390A3C031D382B0630B2079E
:10067000AC1A0800AB1E0800AD112D11AD100B30E7
:100680008F00DC308E000230B60010100800AD196B
:100690005A2BAD153A08003C031D512B0130BC000C
:1006A000522BBC0010143B08BD002B08AC00BA2331
:1006B0000608AB0009152C19642B2B1D642B2D1D6E
:1006C000632B2D11642B2D152D19892B2C18782BAC
:1006D0002B1C782BBC03FF303C02031D712B5930BF
:1006E000BC000F303C050F3C031D782B0630BC02CC
:1006F000AC18AB2BAB1CAB2BBC0A0F303C050A3C37
:10070000031D842B0630BC0760303C020319BC017A
:10071000AB2B2C189B2B2B1C9B2BBD03FF303D02BE
:10072000031D942B9930BD000F303D050F3C031D78
:100730009B2B0630BD02AC18AB2BAB1CAB2BBD0A00
:100740000F303D050A3C031DA72B0630BD07A03026
:100750003D020319BD01AC1A0800AB1E0800AD1123
:100760002D11AD100B308F00DC308E000230B60042
:0E07700010100800FF30AF00AF0BBC2B0800CC
:02400E00D420BC
:02401000FF3F70
:00000001FF
