:020000040000FA
:020000006D2869
:040002000034003492
:08000800A400030EA5000B1972
:100010000A2829283C3081000B11A20AA30A2308D0
:10002000053C031D1628A301FF3089062208783CF1
:10003000031D2928A201A60A3C302602031D2928F7
:10004000A601A70A18302702031D2928A701A60127
:10005000AA0A250E8300A40E240E8B17090082071E
:10006000773441343B346B344D346E347E34433416
:100070007F346F34080088012C0882074228472803
:100080004C28512834082F2087000814562833089C
:100090002F2087008814562831082F208700081544
:1000A000562830082F20870088155628672008001A
:1000B0002A088207432946295729782989299A2914
:1000C000AB29CD29DE29EF29002A112A4329AC0AC0
:0A00D00004302C020319AC010800F3
:0600DA003A226A22BC017B
:1000E0000608AE002F222E187628AD0A00302D0209
:1000F0000319872801302D020319CC2802302D0264
:100100000319192903302D020319AD017628023095
:1001100085002608B2002708AF003C1898282E1A40
:10012000942805143C1498283D2121213B206F2858
:100130002F220608AE002E1A9F283C100510BC186E
:10014000B728AE1E2F22861AA728BC14B728AE1FC8
:100150002F22861BAC28A60A2E1F2F22061BB12891
:10016000A6032E1E2F22061AB72805109428AE1FAC
:100170002F22861BBC28A60AAE1E2F22861AC22852
:10018000BC102E1F2F22061BC628A6032E1E2F22B0
:10019000061ACC2805109428043085002A08B200DD
:1001A0002B08AF003C18E5282E1E3E143E1C942858
:1001B00005143C14E5280D302A02031DE128013006
:1001C000AA003D2121213B206F282F220608AE00E6
:1001D0002E1E3E10BC180329AE1E2F22861AF228AE
:1001E000BC140329AE1F2F22861BF728AA0A2E1F34
:1001F0002F22061BFC28AA032E1E2F22061A0229D4
:1002000005103C10DB28AE1F2F22861B0829AB0AE5
:10021000AE1E2F22861A0D29BC102E1F2F22061B60
:100220001229AB032E1E2F22061A182905103C1086
:10023000DB28083085002808B20021213D213B2021
:100240006F2832080F39B400B8000A303802031D95
:100250002B290630B2072F080F393108B9000A30B0
:100260003902031D35290630AF07320E0F39B300AE
:10027000B6002F0E0F39B0000800AD1C40292E2A01
:100280002D1C222A58280C30AA072E2A00302A02B8
:10029000031D4E290C30AA001F30AB0020302A026B
:1002A000031D2E2A0230AA000130AB002E2A1F3077
:1002B0002A02031D5F290230AA001C30AB001E3049
:1002C0002A02031D67290230AA001C30AB0000304F
:1002D0002A02031D6F290130AA001F30AB001D3018
:1002E0002A02031D2E2A0330AA000130AB002E2A59
:1002F00000302A02031D80290230AA001C30AB0006
:1003000020302A02031D2E2A0430AA000130AB003F
:100310002E2A00302A02031D91290330AA001F3023
:10032000AB001F302A02031D2E2A0530AA0001301F
:10033000AB002E2A00302A02031DA2290430AA0095
:100340001E30AB0020302A02031D2E2A0630AA00E0
:100350000130AB002E2A00302A02031DB3290530DC
:10036000AA001F30AB001F302A02031D2E2A0730BF
:10037000AA000130AB002E2A00302A02031DC42936
:100380000730AA001E30AB0020302A02031D2E2A9F
:100390000830AA000130AB002E2A00302A02031DCB
:1003A000D5290730AA001F30AB0020302A02031DD8
:1003B0002E2A0930AA000130AB002E2A00302A0272
:1003C000031DE6290830AA001F30AB001F302A02A7
:1003D000031D2E2A0A30AA000130AB002E2A00305D
:1003E0002A02031DF7290930AA001E30AB00203075
:1003F0002A02031D2E2A0B30AA000130AB002E2A40
:1004000000302A02031D082A0A30AA001F30AB0060
:1004100020302A02031D2E2A0C30AA000130AB0026
:100420002E2A00302A02031D192A0B30AA001E3082
:10043000AB0020302A02031D2E2A0130AA00013011
:10044000AB002E2A0630363C031D282AA601A70A37
:1004500018302702031D2E2AA601A70108000A3022
:10046000BB003522BB0B312A0800FF30BA00BA0BA3
:10047000372A0800031783168901880103138701AF
:10048000880189018501FF308600073081008312D1
:1004900085018601870188018901AE01A001A101C2
:1004A000A201A301A601A701A801A901AB01AA010C
:1004B0000130AA000130AB00A401A501AC01AF01DD
:1004C000B001B101B201B301B401BA01BB01BC0179
:1004D000BE010800031383123C308100E4308B001E
:0404E0000B110800F4
:02400E00D420BC
:02401000FF3F70
:00000001FF
