:020000040000FA
:020000003628A0
:040002000034003492
:080008008B13A000030EA10000
:100010000B190E280C1813288C181A28F930810097
:100020000B1165201E280C10A70A85308F00EE30BA
:100030008E001E2891018C10FF30A306210E830034
:10004000A00E200E8B1709008207773441343B3411
:100050006B344D346E347E3443347F346F346F34BC
:0C0060006F346F346F346F346F3408005D
:04006C007420862056
:100070009320A120AE20A70127080F39A9000A303C
:100080002902031D45280630A7074D205820A0301F
:1000900027020319A7013C284C28231C55202318AC
:1000A0005220080003308600080000308600080057
:1000B00027080F39A400270E0F39A5000800261CB9
:1000C00063282610080026140800880126186D28C9
:1000D000240824208700081472282508242087007B
:1000E000881472285F200800831603138501860197
:1000F000870188018316031788018901831203137E
:100100008501860187018801A70108008316031372
:100110008112811101158114011483120313F93026
:1001200081000B1108008312031310139016101294
:1001300090119010101485308F00EE308E000C104E
:10014000080083120313FF30920083160313F43068
:1001500092008312031391018C100800831603137D
:100160000C148C14831203138B170B170C108C10A8
:060170008B160B110800C4
:02400E00D43F9D
:02401000FF3F70
:00000001FF
