:020000040000FA
:020000003228A4
:040002000034003492
:08000800A400030EA5000C1C6E
:100010000F280C10A00A0B308F00D8308E000B1D5B
:100020001D280B11FC302605A700A6090330260564
:100030002707A6002616C13081008C1C2D288C10A5
:10004000A303031D2D280D30A3002608F339A700B4
:1000500026090C392707A6002616250E8300A40EB4
:04006000240E090061
:0C0064008316031788018901831603131B
:100070008501870188010F178F120F16D330810079
:100080007D309200E0308B0003308C0083123130E1
:10009000900027309200C13081000B308F00DC309F
:1000A0008E000D30A300A0010D30A6000D30A7007A
:1000B0007120261E582826128801622087002608F3
:1000C000880058282008261C200E0F398207773414
:1000D00041343B346B344D346E347E3443347F349E
:1000E0006F3420080F39A1000A302102031D0800D7
:0E00F0000630A007A03020020319A00108006E
:02400E00D420BC
:02401000FF3F70
:00000001FF
