:020000040000FA
:020000001528C1
:040002000034003492
:08000800AB00030EAA000B116E
:100010009E30810029142A0E8300AB0E2B0E09009E
:0A0020000B119E3081002914080026
:06002A000313831685019B
:100030008701C0308600880157308105C0309600A6
:1000400003178801890103138312A0308B049E30AB
:10005000810085018601870188012830A100A00167
:10006000A201A8010130A60029184B200608A5000E
:100070008220251F6120A51F64208801FF30A6066D
:1000800067208700260888002008220203195820CC
:10009000031C562034282910A103031950200800FE
:1000A0002830A100A00A2008850008000030850043
:1000B000FF30A806013028058600A0012830A100E5
:1000C0000800061BA20A0800861BA20308002208DB
:1000D000A61B220E0F398207773441343B346B3430
:1000E0004D346E347E3443347F346F345F347C342B
:1000F000363479343E341E340130A4008220A40BFF
:0E0100007E280800FF30A300A30B842808000F
:02400E00D420BC
:02401000FF3F70
:00000001FF
