:020000040000FA
:020000001328C3
:040002000034003492
:08000800A300030EA400031382
:1000100083120C131E08A00086009F14240E830078
:06002000A30E230E0900EF
:0A00260003178316880108148901EE
:100030008C1383128D0103138316860187018801B7
:10004000FF3085008B170B170C179F01831241306F
:100050009F0086018801A001A1019F140313831250
:100060000508A200210888003820A21842202E2866
:100070008B13031783160C1483120C080313A100AF
:100080008B1708005620851808008B1320080317CB
:1000900083128C0083160C1555308D00AA308D000C
:1000A0008C140C11031383128B1708000313831293
:0A00B0008030A500A50B5A280800B7
:02400E00D420BC
:02401000FF3F70
:00000001FF
